:100237007869616F207A68616E67000000000000CE
:10024700000000006B61692066612062616E2079A1
:10025700616E207A68656E67646169206D612063ED
:100267006520736869000000000000006B61692069
:1002770064656E67000000000000000000000000D9
:100287006775616E2064656E6700000000000000FE
:1002970000000000626569206A696E67000000005F
:1002A70000000000000000007368616E672068614D
:1002B7006900000000000000000000006775616E23
:1002C70067207A686F7500000000000000000000DA
:1002D7007368616F206D6920616F00000000000086
:1002E7000000000073686920626965000000000073
:1002F7000000000000000000706169207A68616FEB
:1003070000000000000000000000000000020104DF
:070317000516172F303132EB
:1007F600D2B57F057E007D007C001208E7C2B57F7A
:10080600057E007D007C001208E7D2B57F057E00DC
:100816007D007C001208E7C2A17F057E007D007C7A
:10082600001208E7D2A17F057E007D007C00020849
:01083600E7DA
:1003C8007F0612097B7D357F171209707F0A7E0030
:1003D8007D007C001208E77F0612097B7D037F8978
:1003E8001209707F057E007D007C001208E77D43BE
:1003F8007FCF1209707F057E007D007C001208E720
:100408007D027FCB1209707D0A7F11120970E4FD0D
:100418007F1E1209707D3F7F191209707D487F1B6E
:100428001209707D1F7F1D1209707F0A7E007D00F2
:100438007C001208E77D047FCD1209707F057E00DD
:100448007D007C001208E7E4FD7FB91209707D4F3A
:0C0458007FCF1209707DFF7F6F020970DA
:1006BB001203C8E4FD7FBD1209707D487F17120934
:1006CB00707F0A7E007D007C001208E77D807F3CF6
:1006DB001209707D077F3E1209707DFF7F3812096A
:1006EB00707D077F3A120970E4FD7F401209707D1F
:1006FB00087F42120970E4FD7F441209707D087F68
:0F070B00461209707F017E007D007C000208E726
:10059A00E4F508C2A87F2B12097B781CA607E4FDA4
:1005AA007F29120970E4FD7F02120970781CE63077
:1005BA00E42D7FB212097BEF642170237FBF1209F9
:1005CA007BBF351B7FBA12097B8F08E508D39400DD
:1005DA00400DE508D394045006781D7610800478FF
:1005EA001D7611E4FD7F2B120970E4FD7F1C1209B0
:1005FA0070E4FD7F29120970E4FD7F02120970E49C
:10060A00FD7F2B120970E4FD7FBA120970E4FD7FA9
:10061A00BC1209707D017F08120970E4FD7F08127F
:04062A000970D2A8D9
:01062E0022A9
:10071A00E4F50AF50BF50A12098C7F327E007D009A
:10072A007C001208E7120464EF700280117F0A7ECF
:10073A00007D007C001208E7120500EF7010120716
:10074A00F67F327E007D007C001208E78005750B7B
:0E075A00018009050AE50AC3940540BBAF0BF8
:01076800226E
:10087200E4F510F50F7FB212097BBF210575100157
:1008820080147F0A7E007D007C001208E7050FE5D8
:080892000FC3940A40DFAF1010
:01089A00223B
:03098C000206BBA5
:10050000C2A87D557F351209707D097F1C120970C4
:100510007D207FBD1209707D017F081209707F0167
:100520007E007D007C001208E7E4FD7F0812097060
:100530007F017E007D007C001208E7120872EF70D8
:1005400002FF227D0A7FB61209707D0B7F1C120903
:10055000707DFF7FB21209707F017E007D007C00FC
:100560001208E77D067F371209707F017E007D004B
:100570007C001208E77D067F371209707F057E0038
:100580007D007C001208E77D107F29120970E4FDD0
:0A0590007FBD120970D2A87F01227E
:10046400750D01E4F50C120872EF7005F50D020428
:10047400FDE50C90031393FD7FC1120970E4FD7F29
:10048400C31209707D047F081209707F017E007D0C
:10049400007C001208E7E4FD7F081209707F017EEA
:1004A400007D007C001208E7E4F50EE50C75F014FD
:1004B400A42437F582E43402F583E582250EF5821F
:1004C400E43583F583E493FD600E7F05120970051E
:1004D4000EE50EC3941440D3AD0E7FB91209707D9E
:1004E400FF7FB21209707D047F37120970050CE595
:0B04F4000CC3940B500302046AAF0D10
:0104FF0022DA
:060986007FC512097B226F
:100141007265636569766520636F6D6D616E640DBF
:100151000A007265636569766520636F6465207462
:100161006573740D0A007265636569766520626F57
:1001710061726420746573740D0A00726563656948
:100181007665207475726E206F6E0D0A007265635C
:1001910065697665207475726E206F66660D0A005A
:1001A10072656365697665206265696A696E670D66
:1001B1000A0072656365697665207368616E6768B8
:1001C10061690D0A0072656365697665206775610D
:1001D1006E677A686F750D0A007265636569766589
:1001E1002073616F206D69616F0D0A00726563652F
:1001F10069766520736869206269650D0A00726518
:10020100636569766520706169207A68616F0D0A9E
:10021100007265706561740D0A00706C65617365CB
:1002210020737065616B206D61696E20636F6D6D08
:06023100616E640D0A007D
:06096500011D00011B0052
:10076900E4F50912090B1209271207F612089B80F2
:100779002C781DE61460FA24F1601824DF60F22455
:10078900317020781D760112071AEF70E4781D7612
:100799003180DE120986781EEFF612031EE4781DF9
:0907A900F680CEE4781DF680C84C
:10090B00B2C212094DB2C212094DB2C212094DB296
:0C091B00C212094DB2C212094DB2C22234
:100927007580FF7590FF75A0FF75B0FF75C0FFC29A
:08093700C3D289D2A8D2AF227D
:0A095A0000007F057E49DEFEDFFC91
:010964002270
:0808E7008F148E138D128C1189
:1008EF00E4F515F516F517F518781174FF12002FAA
:0B08FF00EC4D4E4F600512095A80EED0
:01090A0022CA
:0C094D007F117ED07D1BDDFEDEFCDFFA9A
:01095900227B
:03000300020837B9
:10083700C0E0C0F0C083C082C0D075D000C000C087
:1008470001C002C003C004C005C006C00712059A54
:10085700D007D006D005D004D003D002D001D000F5
:0B086700D0D0D082D083D0F0D0E0329F
:10031E008F0AE50A700E751B01C2C27BFF7A017946
:10032E00410203C4E51B640160030203BEF51BD248
:10033E00C2E50A12004D036601036E020376040342
:10034E007E05038616038E1703962F039E3003A693
:10035E003103AE32000003B67BFF7A01795380562B
:10036E007BFF7A017967804E7BFF7A01797C80462C
:10037E007BFF7A01798E803E7BFF7A0179A18036F0
:10038E007BFF7A0179B3802E7BFF7A0179C68026B6
:10039E007BFF7A0179DA801E7BFF7A0179ED801678
:1003AE007BFF7A0179FF800E7BFF7A02791280063D
:0A03BE007BFF7A02791B1208C222AD
:0B097000908100EFF0908000EDF0227D
:0B097B00908100EFF0908000E0FF2270
:04096B0002192580C8
:10089B00759850758920AE19AF1AAB07AA06E4F903
:1008AB00F8FF7EE1FDFC1207B212001F8F8B8F8DBC
:0708BB00D28ED2ACD2AF22B5
:0E093F00C2ACC2998F993099FDC299D2AC22F8
:1008C2008B0B8A0C890DAB0BAA0CA90D12000660CA
:1008D20013050DE50D7002050C14F9120006FF1246
:0508E200093F80E22245
:0300000002062FC6
:0C062F00787FE4F6D8FD75811E02067687
:10000600BB010689828A83E0225002E722BBFE02F8
:09001600E32289828A83E493222B
:1007B200C2D5E830E70FB2D5E4C39BFBE49AFAE472
:1007C20099F9E498F8EC30E717B2D51207E812006D
:1007D200AFE4C39BFBE49AFAE499F9E498F8800346
:1007E2001200AF30D50DE4C39FFFE49EFEE49DFDF1
:0407F200E49CFC2265
:0E001F00C3E49FFFE49EFEE49DFDE49CFC22F2
:10002D007401FF3395E0FEFDFC080808E6CF2FF6BE
:10003D0018E6CE3EF618E6CD3DF618E6CC3CF62297
:10004D00D083D082F8E4937012740193700DA3A342
:10005D0093F8740193F5828883E473740293686056
:06006D00EFA3A3A380DF56
:10063B00020769E493A3F8E493A34003F68001F265
:10064B0008DFF48029E493A3F85407240CC8C333C0
:10065B00C4540F4420C8834004F456800146F6DF8F
:10066B00E4800B0102040810204080900965E47EB1
:10067B00019360BCA3FF543F30E509541FFEE49384
:10068B00A360010ECF54C025E060A840B8E493A34B
:10069B00FAE493A3F8E493A3C8C582C8CAC583CA76
:1006AB00F0A3C8C582C8CAC583CADFE9DEE780BE2E
:01096F000087
:1000730075F008758200EF2FFFEE33FECD33CDCC44
:1000830033CCC58233C5829BED9AEC99E5829840C7
:100093000CF582EE9BFEED9AFDEC99FC0FD5F0D6A4
:1000A300E4CEFBE4CDFAE4CCF9A88222B800C1B9CE
:1000B3000059BA002DEC8BF084CFCECDFCE5F0CB0C
:1000C300F97818EF2FFFEE33FEED33FDEC33FCEB45
:1000D30033FB10D703994004EB99FB0FD8E5E4F900
:1000E300FA227818EF2FFFEE33FEED33FDEC33FCED
:1000F300C933C910D7059BE99A4007EC9BFCE99AE1
:10010300F90FD8E0E4C9FAE4CCFB2275F010EF2F25
:10011300FFEE33FEED33FDCC33CCC833C810D70725
:100123009BEC9AE899400AED9BFDEC9AFCE899F860
:0E0133000FD5F0DAE4CDFBE4CCFAE4C8F922F3
:00000001FF
