:10052C007869616F207A68616E67000000000000D6
:10053C000000000073616F206D69616F00000000A6
:10054C00000000000000000073686920626965000B
:10055C000000000000000000000000007061692035
:10056C007A68616F000000000000000000000000CD
:04057C0000303132E8
:10065C00D2B57F057E007D007C0012074DC2B57FB0
:10066C00057E007D007C0012074DD2B57F057E0013
:10067C007D007C0012074DC2A17F057E007D007CB1
:10068C000012074DD2A17F057E007D007C00020781
:01069C004D10
:10011B007F061207E17D357F171207D67F0A7E0017
:10012B007D007C0012074D7F061207E17D037F895E
:10013B001207D67F057E007D007C0012074D7D43A4
:10014B007FCF1207D67F057E007D007C0012074D06
:10015B007D027FCB1207D67D0A7F111207D6E4FDF5
:10016B007F1E1207D67D3F7F191207D67D487F1B56
:10017B001207D67D1F7F1D1207D67F0A7E007D00DA
:10018B007C0012074D7D047FCD1207D67F057E00C4
:10019B007D007C0012074DE4FD7FB91207D67D4F21
:0C01AB007FCF1207D67DFF7F6F0207D6C2
:1004760012011BE4FD7FBD1207D67D487F171207C8
:10048600D67F0A7E007D007C0012074D7D807F3C72
:100496001207D67D077F3E1207D67DFF7F381207EB
:1004A600D67D077F3A1207D6E4FD7F401207D67D38
:1004B600087F421207D6E4FD7F441207D67D087FE7
:0F04C600461207D67F017E007D007C0002074DA5
:10025300E4F508C2A87F2B1207E1781CA607E4FD8A
:100263007F291207D6E4FD7F021207D6781CE630F9
:10027300E42D7FB21207E1EF642170237FBF1207E1
:10028300E1BF351B7FBA1207E18F08E508D394005D
:10029300400DE508D394045006781D761080047849
:1002A3001D7611E4FD7F2B1207D6E4FD7F1C120798
:1002B300D6E4FD7F291207D6E4FD7F021207D6E4B8
:1002C300FD7F2B1207D6E4FD7FBA1207D6E4FD7F2C
:1002D300BC1207D67D017F081207D6E4FD7F081202
:0402E30007D6D2A8C0
:0102E70022F4
:10058000E4F50AF50BF50A1207F27F327E007D00D2
:100590007C0012074D1201B7EF700280117F0A7EB6
:1005A000007D007C0012074D1202E8EF7010120669
:1005B0005C7F327E007D007C0012074D8005750B4C
:0E05C000018009050AE50AC3940540BBAF0B94
:0105CE00220A
:1006D800E4F510F50F7FB21207E1BF21057510018F
:1006E80080147F0A7E007D007C0012074D050FE50F
:0806F8000FC3940A40DFAF10AC
:0107000022D6
:0307F20002047688
:1002E800C2A87D557F351207D67D097F1C1207D617
:1002F8007D207FBD1207D67D017F081207D67F01BA
:100308007E007D007C0012074DE4FD7F081207D6B1
:100318007F017E007D007C0012074D1206D8EF7029
:1003280002FF227D0B7F1C1207D67DFF7FB21207CA
:10033800D67F017E007D007C0012074D7D067F3749
:100348001207D67F017E007D007C0012074D7D06D6
:100358007F371207D67F057E007D007C0012074D8F
:100368007D107F291207D6E4FD7FBD1207D6D2A8DB
:030378007F0122E0
:1001B700750D01E4F50C1206D8EF7005F50D020276
:1001C70050E50C90057C93FD7FC11207D6E4FD7FB7
:1001D700C31207D67D047F081207D67F017E007DF4
:1001E700007C0012074DE4FD7F081207D67F017ED1
:1001F700007D007C0012074DE4F50EE50C75F01448
:10020700A4242CF582E43405F583E582250EF582D6
:10021700E43583F583E493FD600E7F051207D60569
:100227000EE50EC3941440D3AD0E7FB91207D67DE9
:10023700FF7FB21207D67D047F371207D6050CE57C
:0B0247000CC3940450030201BDAF0D76
:010252002289
:0607EC007FC51207E122A7
:100407007265636569766520636F6D6D616E640DF6
:100417000A00726563656976652073616F206D698F
:10042700616F0D0A00726563656976652073686997
:10043700206269650D0A00726563656976652070DB
:100447006169207A68616F0D0A0072657065617471
:100457000D0A00706C6561736520737065616B20B0
:0F0467006D61696E20636F6D6D616E640D0A00CB
:0607CB00011D00011B00EE
:1005CF00E4F50912077112078D12065C12070180FC
:1005DF002C781DE61460FA24F1601824DF60F224F1
:1005EF00317020781D7601120580EF70E4781D764A
:1005FF003180DE1207EC781EEFF61204D5E4781D79
:09060F00F680CEE4781DF680C8E7
:10077100B2C21207B3B2C21207B3B2C21207B3B206
:0C078100C21207B3B2C21207B3B2C22208
:10078D007580FF7590FF75A0FF75B0FF75C0FFC236
:08079D00C3D289D2A8D2AF2219
:0A07C00000007F057E49DEFEDFFC2D
:0107CA00220C
:08074D008F148E138D128C1124
:10075500E4F515F516F517F518781174FF12002F45
:0B076500EC4D4E4F60051207C080EE07
:010770002266
:0C07B3007F117ED07D1BDDFEDEFCDFFA36
:0107BF002217
:0300030002069D55
:10069D00C0E0C0F0C083C082C0D075D000C000C023
:1006AD0001C002C003C004C005C006C0071202533A
:1006BD00D007D006D005D004D003D002D001D00091
:0B06CD00D0D0D082D083D0F0D0E0323B
:1004D500751B01E51B64017044EF24D0601714609F
:1004E5001E1460252432702B751B01C2C27BFF7A56
:1004F500047907802ED2C27BFF7A0479198024D231
:10050500C27BFF7A04792C801AD2C27BFF7A0479E8
:100515003E8010D2C27BFF7A04795180067BFF7A38
:0705250004795A1207282295
:0B07D600908100EFF0908000EDF02219
:0B07E100908100EFF0908000E0FF220C
:0407D1000219258064
:10070100759850758920AE19AF1AAB07AA06E4F99E
:10071100F8FF7EE1FDFC12061812001F8F8B8F8DF2
:07072100D28ED2ACD2AF2250
:0E07A500C2ACC2998F993099FDC299D2AC2294
:100728008B0A8A0B890CAB0AAA0BA90C120006606B
:1007380013050CE50C7002050B14F9120006FF12E4
:0507480007A580E2227C
:0300000002037B7D
:0C037B00787FE4F6D8FD75811E0203C2F5
:10000600BB010689828A83E0225002E722BBFE02F8
:09001600E32289828A83E493222B
:10061800C2D5E830E70FB2D5E4C39BFBE49AFAE40D
:1006280099F9E498F8EC30E717B2D512064E1200A3
:1006380089E4C39BFBE49AFAE499F9E498F8800307
:1006480012008930D50DE4C39FFFE49EFEE49DFDB2
:04065800E49CFC2200
:0E001F00C3E49FFFE49EFEE49DFDE49CFC22F2
:10002D007401FF3395E0FEFDFC080808E6CF2FF6BE
:10003D0018E6CE3EF618E6CD3DF618E6CC3CF62297
:100387000205CFE493A3F8E493A34003F68001F2B8
:1003970008DFF48029E493A3F85407240CC8C33377
:1003A700C4540F4420C8834004F456800146F6DF46
:1003B700E4800B01020408102040809007CBE47E04
:1003C700019360BCA3FF543F30E509541FFEE4933B
:1003D700A360010ECF54C025E060A840B8E493A302
:1003E700FAE493A3F8E493A3C8C582C8CAC583CA2D
:1003F700F0A3C8C582C8CAC583CADFE9DEE780BEE5
:0107D5000023
:10004D0075F008758200EF2FFFEE33FECD33CDCC6A
:10005D0033CCC58233C5829BED9AEC99E5829840ED
:10006D000CF582EE9BFEED9AFDEC99FC0FD5F0D6CA
:10007D00E4CEFBE4CDFAE4CCF9A88222B800C1B9F4
:10008D000059BA002DEC8BF084CFCECDFCE5F0CB32
:10009D00F97818EF2FFFEE33FEED33FDEC33FCEB6B
:1000AD0033FB10D703994004EB99FB0FD8E5E4F926
:1000BD00FA227818EF2FFFEE33FEED33FDEC33FC13
:1000CD00C933C910D7059BE99A4007EC9BFCE99A07
:1000DD00F90FD8E0E4C9FAE4CCFB2275F010EF2F4C
:1000ED00FFEE33FEED33FDCC33CCC833C810D7074C
:1000FD009BEC9AE899400AED9BFDEC9AFCE899F887
:0E010D000FD5F0DAE4CDFBE4CCFAE4C8F92219
:00000001FF
